:020000040800F2
:1000000000300020A138000855320008573200089F
:10001000593200085B3200085D3200080000000021
:100020000000000000000000000000005F32000837
:1000300061320008000000006332000865320008E9
:10004000F1380008F1380008F1380008F1380008EC
:10005000F1380008F1380008F1380008F1380008DC
:10006000F1380008F1380008F1380008F1380008CC
:10007000F1380008F1380008F1380008F1380008BC
:10008000F1380008F1380008F1380008F1380008AC
:100090006D320008F1380008F1380008F138000826
:1000A0007D3200088D3200089D320008AD32000814
:1000B000F1380008BD32000800000000F1380008E7
:1000C000F13800080000000000000000F1380008CE
:1000D00000000000F1380008CD320008F1380008B7
:1000E000F1380008F13800080000000000000000AE
:1000F0000000000000000000000000000000000000
:1001000000000000000000000000000000000000EF
:100110000000000000000000DD320008ED320008A1
:1001200000000000000000000000000000000000CF
:1001300000000000000000000000000000000000BF
:10014000F1380008F138000800000000000000004D
:10015000000000000000000000000000000000009F
:10016000000000000000000000000000000000008F
:10017000000000000000000000000000000000007F
:0801800000000000F138000846
:1001880010B5054C237833B9044B13B10448AFF3C9
:1001980000800123237010BD100000200000000023
:1001A8004C39000808B5034B1BB103490348AFF3AA
:1001B800008008BD00000000140000204C39000831
:1001C80010B504460E4B18784FF47A73B3FBF0F36E
:1001D8000C4A1068B0FBF3F000F060FC68B90F2C13
:1001E80001D901200AE0002221464FF0FF3000F03B
:1001F80013FC034B5C60002000E0012010BD00BF31
:10020800000000200C00002008B5074A136843F0DE
:1002180010031360032000F0EDFB0020FFF7D0FF70
:1002280002F0FCFF002008BD00200240034A1168CC
:10023800034B1B780B441360704700BFE00000209D
:1002480000000020014B1868704700BFE000002044
:1002580038B50446FFF7F6FF0546B4F1FF3F02D074
:10026800044B1B781C44FFF7EDFF401BA042FAD358
:1002780038BD00BF00000020002800F0A18038B57C
:10028800044690F82030D3B12268136823F00203A3
:100298001360FFF7D7FF054623685A6812F0020F6C
:1002A80010D0FFF7CFFF401B0A28F5D9636A43F443
:1002B80000336362052384F82030012038BD02F042
:1002C800DBFBE1E71A6842F001021A60FFF7BAFFA8
:1002D800054623685A6812F0010F0DD1FFF7B2FFE7
:1002E800401B0A28F5D9636A43F400336362052387
:1002F80084F820300120E1E7227E012A3DD01A68E7
:1003080022F080021A60637E012B3BD022681368BA
:1003180023F040031360A37E012B39D022681368B1
:1003280023F020031360E37E012B37D02268136883
:1003380043F010031360237F012B35D02268136824
:1003480023F008031360637F012B33D022681368FE
:1003580023F004031360A368E2681343226913437C
:10036800626913436268013A21681343CB61002034
:100378006062012384F82030A0E71A6842F0800206
:100388001A60C0E72268136843F040031360C2E7AD
:100398002268136843F020031360C4E722681368D7
:1003A80023F010031360C6E72268136843F00803BC
:1003B8001360C8E72268136843F004031360CAE7B0
:1003C80001207047036890F82020013AD2B2012A30
:1003D80005D9436A43F4802343620120704770B40F
:1003E800D3F8002242F00102C3F800224A6902F061
:1003F8001F02012000FA02F2D3F81C42D043044045
:10040800C3F81C42CC69ACB9D3F80C420440C3F819
:100418000C42CE688D884C6945EA0645483443F855
:1004280034508E680D884C6945EA0645483403EB1C
:10043800C4046560CC69012C19D08C6974BBD3F8ED
:1004480004420440C3F804420C696CBBD3F814425C
:100458002040C3F81402096A01292BD0D3F80022DE
:1004680022F00102C3F80022002070BC7047D3F8C4
:100478000C421443C3F80C420E688D884C6945EA57
:100488000645483443F834508E688D894C6945EAEE
:100498000645483403EBC4046560CEE7D3F804424C
:1004A8001443C3F80442CFE7D3F814021043C3F847
:1004B8001402D0E7D3F81C120A43C3F81C22CDE774
:1004C80038B590F82030DBB2012B05D0436A43F4ED
:1004D80000234362012038BD0446022380F82030FF
:1004E8000268136823F001031360FFF7ABFE0546AB
:1004F80023685B6813F0010F0DD0FFF7A3FE401BC4
:100508000A28F5D9636A43F400336362052384F843
:1005180020300120DFE700206062DCE770B490F84B
:1005280020400568AD68013CE4B2012C06D9436A55
:1005380043F480234362012070BC704715F0E05FEC
:100548005BD0C5F30165022D3ED80124AC401C6088
:100558008B68002B3ED10E68CB68046843EA465688
:1005680005F118031B01E65003680C6905F118062C
:1005780003EB06135C600B7D012B36D0D1799379A0
:100588001B0443EA0163517943EA012314790168A2
:1005980023432C012144C1F88C31D17893781B0472
:1005A80043EA0163517843EA0123117802680B4357
:1005B8002244C2F88831026818352D01535943F096
:1005C800010353510020B7E7436A43F40003436231
:1005D8000120B1E74C6843EAC403CC6806682343AA
:1005E80005F1180424013351BEE7036803EB061331
:1005F800596841F480715960C0E7436A43F40013B5
:100608004362012098E790F82030013BDBB2012BD0
:1006180001D90020704703689B68890631EA030303
:1006280001D0012070470020704730B490F8204076
:10063800013CE4B2012C06D9436A43F480234362A7
:10064800012030BC704700296FD10468E46814F0B9
:10065800030F64D0056801F11B0424012C5904F030
:1006680004049460002C6BD1056801F11B0424017B
:100678002C59640D1460056801F11B0424012D59DF
:1006880005F00205D560056825446D6805F00F057D
:100698001561056825446D68C5F3072595610568EA
:1006A8002C446468240C546104680A011444D4F886
:1006B800B8411C7004681444D4F8B841C4F3072442
:1006C8005C7004681444D4F8B841C4F307449C70BF
:1006D80004681444D4F8B841240EDC700468144447
:1006E800D4F8BC411C7104681444D4F8BC41C4F368
:1006F80007245C7104681444D4F8BC41C4F307446B
:100708009C7104682244D2F8BC21120EDA71F9B93E
:100718000268D36843F02003D360002091E7436A5E
:1007280043F40013436201208BE70468246914F042
:10073800030F8FD1436A43F400134362012080E71B
:10074800056801F11B0424012C59E408546092E760
:100758000268136943F020031361002071E790F8E1
:100768002030013BDBB2012B05D9436A43F48023D7
:1007780043620120704702685369194351610020A0
:1007880070477047704770477047704770477047A9
:10079800704770477047704770472DE9F84F054616
:1007A80003685C695F689E68D3F80C90D3F8108082
:1007B800D3F818A014F0010F5AD016F0010F17D073
:1007C80001229A6016F0020F08D116F0040F30D1FA
:1007D80016F0080F07D04FF4805B0BE0FFF7D1FF4E
:1007E8004FF0000B06E0FFF7CFFF4FF0000B01E0E2
:1007F8004FF0000B16F4807F0BD02B684FF48072FB
:100808009A6016F4007F17D116F4806F18D04BF455
:10081800005B16F4803F2DD02B684FF480329A602D
:1008280016F4003F16D116F4802F17D04BF4004B66
:1008380020E04FF4006BDDE72846FFF7A3FFE8E769
:1008480016F4006F02D04BF4804BE2E72846FFF71E
:100858009CFFDEE72846FFF796FF0BE016F4002F13
:1008680002D04BF4803B05E02846FFF78FFF01E0FC
:100878004FF0000B14F0080F07D019F0100F04D038
:100888004BF4007B2B681022DA6014F0040F02D0BE
:1008980019F0080F60D114F0020F04D02B68DB6840
:1008A80013F0030F5FD114F0400F07D018F0100FAA
:1008B80004D04BF4806B2B6810221A6114F0200FBF
:1008C80002D018F0080F52D114F0100F04D02B6882
:1008D8001B6913F0030F51D114F4003F02D017F035
:1008E800100F4FD114F4803F02D017F0080F50D1E9
:1008F80014F4004F67D017F0040F61D014F4807F10
:1009080004D01AF0010F01D04BF0010B14F4007F52
:1009180004D01AF0020F01D04BF0020B14F4806FD0
:1009280004D01AF0040F01D04BF0040B14F4006F3C
:1009380046D01AF0700A43D0BAF1300F48D02FD9F8
:10094800BAF1500F47D0BAF1600F47D0BAF1400F53
:1009580031D14BF0400B2EE02B680822DA60284694
:10096800FFF715FF97E7284602F020FD9BE72B6865
:1009780008221A612846FFF70CFFA5E72846FFF76B
:1009880007FFA9E72B6810225A602846FFF702FFE5
:10099800A8E72B6808225A602846FFF7FCFEA7E75D
:1009A800BAF1100F05D0BAF1200F04D14BF0100B9B
:1009B80001E04BF0080B2A68936923F070039361F8
:1009C8002B6804225A60BBF1000F0AD1BDE8F88FEA
:1009D8004BF0200BEFE74BF0800BECE74BF4807B00
:1009E800E9E76B6A43EA0B036B622846FFF7D4FE1C
:1009F800ECE70000074AD36823F4E0631B041B0CF0
:100A0800000200F4E060184340F0BF6040F400309A
:100A1800D060704700ED00E030B4174BDB68C3F3DB
:100A28000223C3F10704042C28BF04241D1D062D2E
:100A380018D9033B4FF0FF3505FA04F421EA040105
:100A4800994005FA03F322EA0303194300280BDB54
:100A58000901C9B200F1604000F5614080F8001357
:100A680030BC70470023E5E700F00F000901C9B268
:100A7800024B1954F4E700BF00ED00E014ED00E06C
:100A8800002807DB00F01F02400901239340024AB7
:100A980042F82030704700BF00E100E00138B0F1B3
:100AA800807F0AD2064B5860064AF02182F823104C
:100AB8000020986007221A6070470120704700BF25
:100AC80010E000E000ED00E090F82130022B06D0A5
:100AD80004238363002380F82030012070470268D4
:100AE800136823F00E0313600268136823F00103F0
:100AF8001360036CC16B012202FA03F34B6080F8A8
:100B08002120002380F820301846704708B590F857
:100B18002130022B03D004238363012008BD02681F
:100B2800136823F00E0313600268136823F00103AF
:100B38001360036CC16B012202FA03F34B6080F867
:100B48002120002380F82030436B13B19847002000
:100B5800E4E70020E2E70000F0B583B0002336E0C8
:100B6800032400E00024B4403C430235584E46F8C4
:100B78002540584C2568D44304EA05064F6817F405
:100B8800803F01D042EA0506524D2E606D6804EAA6
:100B980005064F6817F4003F01D042EA05064D4D9F
:100BA8006E60AD6804EA05064F6817F4801F01D02F
:100BB80042EA0506474DAE60ED682C404E6816F4D3
:100BC800001F01D042EA0504424AD46001330A6892
:100BD80032FA03F479D001249C402240F6D04D68C3
:100BE8006E1E012E03D9112D01D0122D12D1866847
:100BF8005F000325BD4026EA0506CD68BD403543A4
:100C08008560466826EA04064D68C5F300149C40D2
:100C180034434460C5685F000324BC40E443254076
:100C28008E68BE402E43C6604D68022D01D0122D3D
:100C380013D1DE08083650F826E003F007054FEA1E
:100C4800850C0F2505FA0CF52EEA050E0D6905FA37
:100C58000CF545EA0E0540F8265005682C404D680D
:100C680005F00305BD402C4304604C6814F0805F18
:100C7800ACD0194CA56945F00105A561A46904F03B
:100C880001040194019C9D08AE1C114C54F8267077
:100C980003F00304A6000F24B44027EA0407B0F1C8
:100CA800904F3FF45FAF0D4CA0420AD004F580642A
:100CB800A04208D004F58064A0423FF451AF052457
:100CC80051E701244FE702244DE703B0F0BD00BF10
:100CD80000000140000401400010024000040048E8
:100CE8000AB981627047816170470000002800F0EE
:100CF8000D8370B582B00446036813F0010F3BD032
:100D0800B54B5B6803F00C03042B1ED0B24B5B6839
:100D180003F00C03082B13D06368B3F5803F68D049
:100D2800002B40F0928003F1804303F504331A68E6
:100D380022F480321A601A6822F480221A605DE078
:100D4800A54B5B6813F4803FE6D04FF4003393FA69
:100D5800A3F3A14B19684FF4003393FAA3F3B3FA42
:100D680083F303F01F03012202FA03F30B4203D0BB
:100D78006368002B00F0CC82236813F0020F00F0A8
:100D8800C680954B5B6813F00C0F00F09C80924B6B
:100D98005B6803F00C03082B00F08F802369002B9D
:100DA80000F0F380012292FAA2F3B3FA83F303F17D
:100DB800845303F584139B001A60FFF743FA054632
:100DC800022393FAA3F3844B1968022393FAA3F33B
:100DD800B3FA83F303F01F03012202FA03F30B4271
:100DE80040F0C480FFF72EFA401B0228E8D9032000
:100DF80095E2794A136843F480331360764AD36ADC
:100E080023F00F03A1680B43D3626368002B36D02D
:100E1800FFF718FA05464FF4003393FAA3F36E4B25
:100E280019684FF4003393FAA3F3B3FA83F303F08A
:100E38001F03012202FA03F30B429DD1FFF702FAC6
:100E4800401B6428E7D9032069E2B3F5A02F09D035
:100E5800614B1A6822F480321A601A6822F48022E0
:100E68001A60CBE703F18043A3F53C331A6842F4D8
:100E780080221A601A6842F480321A60BEE7FFF7CF
:100E8800E1F905464FF4003393FAA3F3524B19687E
:100E98004FF4003393FAA3F3B3FA83F303F01F0379
:100EA800012202FA03F30B423FF466AFFFF7CAF9D7
:100EB800401B6428E6D9032031E2474B5B6813F4F2
:100EC800803F7FF46BAF022393FAA3F3424B196878
:100ED800022393FAA3F3B3FA83F303F01F03012267
:100EE80002FA03F30B4204D02369934201D0012094
:100EF80015E23948036823F0F8036169F82292FA89
:100F0800A2F2B2FA82F201FA02F2134303602368F2
:100F180013F0080F00F08C80A369002B60D001212A
:100F280091FAA1F2B2FA82F22C4B13449B00196099
:100F3800FFF788F90546022393FAA3F293FAA3F27E
:100F480093FAA3F2244A516A93FAA3F3B3FA83F308
:100F580003F01F03012202FA03F30B4268D1FFF7E3
:100F680071F9401B0228E6D90320D8E11A48036822
:100F780023F0F8036169F82292FAA2F2B2FA82F237
:100F880001FA02F213430360C1E7012393FAA3F3C2
:100F9800B3FA83F303F1845303F584139B0000220F
:100FA8001A60FFF74FF90546022393FAA3F30A4B99
:100FB8001968022393FAA3F3B3FA83F303F01F0328
:100FC800012202FA03F30B42A1D0FFF73BF9401BC1
:100FD8000228E9D90320A2E10010024020819010E4
:100FE800012292FAA2F2B2FA82F2BC4B13449B009D
:100FF80000221A60FFF726F90546022393FAA3F2A6
:1010080093FAA3F293FAA3F2B54A516A93FAA3F3B7
:10101800B3FA83F303F01F03012202FA03F30B422E
:1010280006D0FFF70FF9401B0228E6D9032076E126
:10103800236813F0040F00F0B380A94BDB6913F0A9
:10104800805F20D1A64BDA6942F08052DA61DB6911
:1010580003F080530193019B0125A24B1B6813F4F5
:10106800807F12D0E368012B23D073BB03F1804348
:1010780003F504331A6A22F001021A621A6A22F08E
:1010880004021A621AE00025E7E7964A136843F457
:1010980080731360FFF7D6F80646924B1B6813F46B
:1010A800807FDFD1FFF7CEF8801B6428F5D90320B5
:1010B80035E18B4A136A43F001031362E368002B9E
:1010C80041D0FFF7BFF806462BE0052B09D0844B2B
:1010D8001A6A22F001021A621A6A22F004021A62DB
:1010E800ECE77F4B1A6A42F004021A621A6A42F06D
:1010F80001021A62E2E77A4B196A022393FAA3F310
:10110800B3FA83F303F01F03012202FA03F319422F
:1011180045D1FFF797F8801B41F28833984200F2D7
:10112800F980022393FAA3F293FAA3F3B3FA83F3B1
:101138005B0943F00203022BDDD0022393FAA3F3E9
:10114800674B596AD9E7FFF77DF8064615E0644B07
:10115800196A022393FAA3F3B3FA83F303F01F0384
:10116800012202FA03F3194219D0FFF76BF8801B2A
:1011780041F28833984200F2CF80022393FAA3F217
:1011880093FAA3F3B3FA83F35B0943F00203022B48
:10119800DDD0022393FAA3F3514B596AD9E7B5BBC3
:1011A800E369002B00F0BA804D4A526802F00C0245
:1011B800082A00F09980022B2FD04FF0807393FA01
:1011C800A3F3B3FA83F303F1845303F584139B0069
:1011D80000221A60FFF736F804464FF0007393FABE
:1011E800A3F33F4B19684FF0007393FAA3F3B3FAD4
:1011F80083F303F01F03012202FA03F319426BD0B1
:10120800FFF720F8001B0228E7D9032087E0344ABB
:10121800D36923F08053D361C2E74FF0807393FA08
:10122800A3F3B3FA83F303F1845303F584139B0008
:1012380000221A60FFF706F805464FF0007393FA8C
:10124800A3F3274B19684FF0007393FAA3F3B3FA8B
:1012580083F303F01F03012202FA03F3194206D0B5
:10126800FEF7F0FF401B0228E7D9032057E01C498E
:101278004B6823F47413626A206A024313434B6079
:101288004FF0807393FAA3F3B3FA83F303F1845313
:1012980003F584139B0001221A60FEF7D3FF04466E
:1012A8004FF0007393FAA3F30D4B19684FF00073D6
:1012B80093FAA3F3B3FA83F303F01F03012202FAAC
:1012C80003F3194206D1FEF7BDFF001B0228E7D938
:1012D800032024E0002022E0002020E0208190105C
:1012E8000010024000700040012B1AD00F4B5B68C1
:1012F80003F48031226A914201D001200FE003F407
:101308007013626A93420ED0012008E001207047F2
:10131800012004E0032002E0032000E0002002B0E6
:1013280070BD0120FBE70020F9E700BF0010024074
:1013380010B4174B5C6804F00C03082B26D104F496
:1013480070124FF4701393FAA3F3B3FA83F322FAEB
:1013580003F31049C85C0E4BDB6A03F00F030F223E
:1013680092FAA2F2B2FA82F2D3400B441A7C14F435
:10137800803F05D1084B03FB00F05DF8044B704734
:10138800064BB3FBF2F300FB03F0F6E70348F4E780
:10139800001002406439000800093D0000127A007C
:1013A800002800F0C18070B50446614B1B6803F04B
:1013B80007038B420CD25E4A136823F007030B43E2
:1013C8001360136803F007038B4201D0012070BD3E
:1013D800236813F0020F06D0564A536823F0F0032F
:1013E800A068034353600D46236813F0010F5AD0D9
:1013F8006368012B2DD0022B40D0022292FAA2F270
:101408004C4A1068022292FAA2F2B2FA82F202F070
:101418001F02012101FA02F2104200F087804549BB
:101428004A6822F0030213434B60FEF70BFF06469F
:10143800404B5B6803F00C036268B3EB820F32D059
:10144800FEF700FF801B41F288339842F0D9032051
:10145800BDE74FF4003292FAA2F2364A10684FF410
:10146800003292FAA2F2B2FA82F202F01F020121CD
:1014780001FA02F20242D2D10120A8E74FF000722D
:1014880092FAA2F22B4A10684FF0007292FAA2F276
:10149800B2FA82F202F01F02012101FA02F21042AE
:1014A800BDD1012093E7224B1B6803F00703AB4231
:1014B8000CD91F4A136823F007032B4313601368E2
:1014C80003F00703AB4201D0012080E7236813F043
:1014D800040F06D0174A536823F4E063E1680B430E
:1014E8005360236813F0080F07D0124A536823F497
:1014F8006053216943EAC1035360FFF719FF0D4B9D
:101508005B6803F0F003F02292FAA2F2B2FA82F2D8
:10151800D340094AD35CD840084B1860084B186878
:10152800FEF74EFE002052E70120704701204EE7EB
:101538000020024000100240843900080C000020FE
:1015480004000020014B1868704700BF0C00002001
:1015580008B5FFF7F7FF074B5B6803F4E0634FF448
:10156800E06292FAA2F2B2FA82F2D340024AD35C63
:10157800D84008BD001002409439000808B5FFF7AC
:10158800E1FF074B5B6803F460534FF4605292FA33
:10159800A2F2B2FA82F2D340024AD35CD84008BD24
:1015A8000010024094390008F0B583B0044603687F
:1015B80013F4803F44D05F4BDB6913F0805F6ED13A
:1015C8005C4BDA6942F08052DA61DB6903F08053E0
:1015D8000193019B0125584B1B6813F4807F60D051
:1015E800544B1B6A13F4407321D0626802F44072B2
:1015F8009A421CD04F48016A21F440764FF4803358
:1016080093FAA3F2B2FA82F24C4F3A4492004FF0A6
:10161800010CC2F800C093FAA3F3B3FA83F33B4476
:101628009B0000221A60066211F0010F4DD1414A59
:10163800136A23F4407361680B431362002D6FD162
:10164800236813F0010F06D03A4A136B23F0030303
:10165800A1680B431363236813F0200F06D0354AA3
:10166800136B23F01003E1680B431363236813F033
:10167800800F06D02F4AD36A23F4F87321690B43ED
:10168800D362236813F4805F51D02A4A136B23F482
:10169800807361690B431363002003B0F0BD00251C
:1016A80099E7254A136843F480731360FEF7CAFD6F
:1016B8000646214B1B6813F4807F91D1FEF7C2FDCB
:1016C800801B6428F5D90320E7E7FEF7BBFD064633
:1016D80014E0184B196A022393FAA3F3B3FA83F3BD
:1016E80003F01F03012202FA03F30B429FD1FEF716
:1016F800A9FD801B41F28833984216D8022393FA39
:10170800A3F293FAA3F3B3FA83F35B0943F002035A
:10171800022BDED0022393FAA3F3064B596ADAE7C9
:10172800D36923F08053D3618AE70320B5E700200B
:10173800B3E700BF00100240007000400081901025
:1017480030B4036A23F001030362036A44688269C0
:1017580022F4803222F073020D682A4323F0020338
:101768008D682B43184DA8420BD005F5A055A8420B
:1017780007D005F58065A84203D005F58065A84225
:1017880005D123F00803CD682B4323F004030E4D45
:10179800A8420BD005F5A055A84207D005F58065ED
:1017A800A84203D005F58065A84205D124F4407508
:1017B8004C692C438D692C43446082614A684263BA
:1017C800036230BC704700BF002C014030B4036A8C
:1017D80023F480730362036A4468C26922F4803286
:1017E80022F073020D682A4323F400738D6843EADC
:1017F8000523144DA8421DD0124DA8420BD005F563
:10180800A055A84207D005F58065A84203D005F584
:101818008065A84207D124F440544D6944EA051470
:101828008D6944EA05144460C2614A68C263036270
:1018380030BC704723F40063CD6843EA052323F4E2
:101848008063D9E7002C014030B4036A23F4805345
:101858000362026A4468C36923F0807323F4E64391
:101868000D6843EA052322F400528D6842EA0532E6
:101878000D4DA8420BD005F5A055A84207D005F597
:101888008065A84203D005F58065A84204D124F4F8
:1018980080444D6944EA85144460C3614B6803641D
:1018A800026230BC704700BF002C014030B4036AAC
:1018B80023F480330362036A4468426D22F4803261
:1018C80022F070020D682A4323F400338D6843EA3E
:1018D80005430D4DA8420BD005F5A055A84207D0E9
:1018E80005F58065A84203D005F58065A84204D1B6
:1018F80024F480344D6944EA0524446042654A680A
:101908008265036230BC7047002C014030B4036A22
:1019180023F480130362026A4468436D23F08073E2
:1019280023F4E0430D6843EA052322F400128D688E
:1019380042EA05520D4DA8420BD005F5A055A84224
:1019480007D005F58065A84203D005F58065A84253
:1019580004D124F480244D6944EA85244460436515
:101968004B68C365026230BC704700BF002C014061
:1019780010B4036A046A24F001040462846924F040
:10198800F00444EA021223F00A030B438261036263
:101998005DF8044B704710B4036A23F01003036228
:1019A8008469036A24F4704444EA023223F0A003F1
:1019B80043EA0113826103625DF8044B7047836850
:1019C80023F07003194341F007018160704700005C
:1019D80090F83D30DBB2012B01D001207047022383
:1019E80080F83D300268D36843F00103D360036890
:1019F800124A934210D0B3F1804F0DD0A2F5943221
:101A0800934209D002F59E32934205D01A6842F0FB
:101A180001021A60002070479968094A0A40062A9C
:101A280008D0B2F5803F07D01A6842F001021A6068
:101A3800002070470020704700207047002C0140AC
:101A480007000100704770477047704710B504469B
:101A580003681A6912F0020F11D0DA6812F0020F47
:101A68000DD06FF002021A610123037703689B69A6
:101A780013F0030F79D0FFF7E6FF002323772368DD
:101A88001A6912F0040F12D0DA6812F0040F0ED09F
:101A98006FF004021A610223237723689B6913F409
:101AA800407F68D02046FFF7CEFF002323772368C6
:101AB8001A6912F0080F12D0DA6812F0080F0ED067
:101AC8006FF008021A61042323772368DB6913F097
:101AD800030F57D02046FFF7B6FF0023237723686C
:101AE8001A6912F0100F12D0DA6812F0100F0ED027
:101AF8006FF010021A61082323772368DB6913F457
:101B0800407F46D02046FFF79EFF002323772368B7
:101B18001A6912F0010F03D0DA6812F0010F3FD1F1
:101B280023681A6912F0800F03D0DA6812F0800F68
:101B38003DD123681A6912F4807F03D0DA6812F065
:101B4800800F3BD123681A6912F0400F03D0DA687E
:101B580012F0400F39D123681A6912F0200F03D010
:101B6800DA6812F0200F37D110BDFFF76BFF20465F
:101B7800FFF76AFF81E72046FFF764FF2046FFF77B
:101B880063FF92E72046FFF75DFF2046FFF75CFF03
:101B9800A3E72046FFF756FF2046FFF755FFB4E7B7
:101BA8006FF001021A61204601F056F9B8E76FF0AC
:101BB80080021A61204600F000FBBAE76FF48072D9
:101BC8001A61204600F0FAFABCE76FF040021A6189
:101BD8002046FFF73AFFBEE76FF020021A61204661
:101BE80000F0EAFAC0E700000368224A904206D0F3
:101BF800B0F1804F03D0A2F59432904203D123F084
:101C080070034A6813431B4A904212D0B0F1804FC8
:101C18000FD0A2F5943290420BD002F59E3290423A
:101C280007D002F58062904203D002F580629042AC
:101C380003D123F44073CA68134323F080034A692D
:101C4800134303608B68C3620B688362094B984235
:101C58000BD003F5A053984207D003F58063984250
:101C680003D003F58063984201D10B690363012314
:101C780043617047002C014058B310B5044690F8F2
:101C88003D300BB3022384F83D30211D2068FFF757
:101C9800ABFF012384F8483084F83E3084F83F30A5
:101CA80084F8403084F8413084F8423084F8433076
:101CB80084F8443084F8453084F8463084F8473056
:101CC80084F83D30002010BD80F83C3001F054FC11
:101CD800D8E70120704758B310B5044690F83D3056
:101CE8000BB3022384F83D30211D2068FFF77CFFE9
:101CF800012384F8483084F83E3084F83F3084F873
:101D0800403084F8413084F8423084F8433084F815
:101D1800443084F8453084F8463084F8473084F8F5
:101D28003D30002010BD80F83C3001F08DFCD8E734
:101D38000120704730B4036A23F010030362036A7A
:101D48004468826922F0807222F4E6420D6842EA11
:101D5800052223F020038D6843EA0513144DA84299
:101D68001DD0134DA8420BD005F5A055A84207D0A9
:101D780005F58065A84203D005F58065A84207D11E
:101D880024F440644D6944EA85048D6944EA850475
:101D9800446082614A688263036230BC704723F002
:101DA8008003CD6843EA051323F04003D9E700BF59
:101DB800002C014038B590F83C30012B00F08C80A5
:101DC8000D460446012380F83C30142A1ED8DFE86B
:101DD80002F00B1D1D1D211D1D1D351D1D1D481D3E
:101DE8001D1D5C1D1D1D6F000068FFF7A9FC226802
:101DF800936943F0080393612268936923F004030D
:101E080093612268936929690B439361002084F8E0
:101E18003C0038BD0068FFF78DFF2268936943F4E2
:101E2800006393612268936923F480639361226855
:101E38009369296943EA01239361E7E70068FFF79B
:101E4800C5FC2268D36943F00803D3612268D369CB
:101E580023F00403D3612268D36929690B43D36152
:101E6800D4E70068FFF7F0FC2268D36943F4006305
:101E7800D3612268D36923F48063D3612268D3696C
:101E8800296943EA0123D361C0E70068FFF70EFD23
:101E98002268536D43F0080353652268536D23F09D
:101EA800040353652268536D29690B435365ADE7F5
:101EB8000068FFF72BFD2268536D43F400635365F8
:101EC8002268536D23F4806353652268536D296932
:101ED80043EA0123536599E702209AE710B484681E
:101EE80024F47F4442EA03230B43234383605DF8D1
:101EF800044B704790F83C30012B64D010B5044671
:101F0800012380F83C30022380F83D300268906855
:101F18002E4B034093600B68402B4AD013D9602B9B
:101F28003DD01ED9702B28D0B3F5005F30D1CB68D7
:101F38004A6889682068FFF7D1FF2268936843F4EC
:101F48008043936024E0102B06D004D9202B03D0C3
:101F5800302B01D01CE0DBB919462068FFF72FFDB4
:101F680016E0502B14D1CA6849682068FFF700FDB5
:101F780050212068FFF723FD0AE0CB684A6889688A
:101F88002068FFF7ABFF2268936843F077039360FC
:101F9800012384F83D30002084F83C0010BDCA6855
:101FA80049682068FFF7F7FC60212068FFF707FD04
:101FB800EEE7CA6849682068FFF7DAFC4021206824
:101FC800FFF7FDFCE4E70220704700BF8800FEFF32
:101FD80010B401F01F01012303FA01F4036A23EA94
:101FE80004030362036A8A40134303625DF8044BE7
:101FF800704700000A4600293ED190F83E30DBB217
:1020080013F1FF3318BF0123002B40F08F8010B568
:10201800002A61D1022380F83E301146044601228D
:102028000068FFF7D5FF2368434A93420BD002F5B7
:10203800A052934207D002F58062934203D002F582
:102048008062934203D15A6C42F400425A64236876
:10205800394A93425CD0B3F1804F59D0A2F59432FB
:10206800934255D002F59E32934251D01A6842F0FD
:1020780001021A60002058E004290DD0082913D065
:102088000C2919D010291FD090F84330DBB213F176
:10209800FF3318BF0123B7E790F83F30DBB213F1E5
:1020A800FF3318BF0123AFE790F84030DBB213F1DC
:1020B800FF3318BF0123A7E790F84130DBB213F1D3
:1020C800FF3318BF01239FE790F84230DBB213F1CA
:1020D800FF3318BF012397E7042A09D0082A0BD039
:1020E8000C2A0DD0102A0FD0022380F8433094E731
:1020F800022380F83F3090E7022380F840308CE7D5
:10210800022380F8413088E7022380F8423084E7D0
:1021180099680A4A0A40062A0AD0B2F5803F09D0CF
:102128001A6842F001021A60002010BD01207047B1
:102138000020FAE70020F8E7002C01400700010022
:1021480090F83C30012B33D030B4012380F83C3078
:10215800022380F83D30026853689568154CA24206
:1021680021D023F070030C68234353600368114A9D
:1021780093420AD0B3F1804F07D0A2F5943293422C
:1021880003D002F59E32934204D125F080058A6877
:1021980015439D60012380F83D30002380F83C30D2
:1021A800184630BC704723F470034C682343D8E7C3
:1021B80002207047002C0140704770477047026842
:1021C800136823F4907313600268936823F0010383
:1021D8009360036E012B05D02023C3670023036699
:1021E800436670470268136823F010031360F3E72F
:1021F800704708B501680A6822F040020A60202288
:10220800826700228266FFF7F3FF08BD704708B5B2
:10221800406A0023A0F85A30A0F85230FFF7F6FFC2
:1022280008BD704770B504460168CB6908688D68B9
:1022380040F60F021A400AD113F0200F07D010F011
:10224800200F04D0636E0BB12046984770BD002A5A
:1022580000F08D8015F0010203D18D4E304200F060
:10226800868013F0010F09D010F4807F06D0012575
:102278000D62D4F880102943C4F8801013F0020FBF
:1022880009D042B1216802250D62D4F8801041F0CE
:102298000401C4F8801013F0040F09D042B121687A
:1022A80004250D62D4F8801041F00201C4F88010B2
:1022B80013F0080F0BD010F0200F00D13AB12268AC
:1022C80008211162D4F880200A43C4F8802013F44E
:1022D800006F0CD010F0806F09D022684FF40061B5
:1022E8001162D4F8802042F02002C4F88020D4F88B
:1022F8008020002AAAD013F0200F06D010F0200F5B
:1023080003D0636E0BB120469847D4F88020236829
:102318009B6813F0400F02D112F0280F20D02046FE
:10232800FFF74DFF23689A6812F0400F14D09A689F
:1023380022F040029A60236F53B1564A5A63206FC5
:10234800FEF7E4FB002881D0206F436B98477DE7B8
:102358002046FFF75BFF79E72046FFF757FF75E751
:102368002046FFF753FF0023C4F880306EE7226E43
:10237800012A12D013F4801F02D015F4800F74D1F3
:1023880013F0800F78D010F0800F75D0A36E002B5B
:102398003FF45CAF2046984758E713F0100FE9D098
:1023A80010F0100FE6D010230B622268936813F028
:1023B800400F34D0216F0B685B689BB2002B3FF451
:1023C80045AFB4F8580098427FF640AFA4F85A30A9
:1023D8008B69202B19D0136823F48073136022684B
:1023E800936823F0010393602268936823F0400305
:1023F80093602023E367002323662268136823F091
:1024080010031360206FFEF75FFBB4F85810B4F8A0
:102418005A30C91A89B22046FFF703FF16E7B4F805
:102428005810B4F85A30C91A89B2B4F85A309BB265
:10243800002B3FF40BAF00293FF408AF136823F4D7
:10244800907313602268936823F00103936020233C
:10245800E3670023236663662268136823F010038A
:1024680013602046FFF7DDFEF0E64FF480130B62A1
:10247800204600F0E0FAE9E613F0400F3FF4E6AE3C
:1024880010F0400F3FF4E2AE2046FFF7B2FEDDE663
:102498002001000417220008B0F85C30C26F222A1D
:1024A80005D00268936943F0080393617047026896
:1024B800918CDBB2426D0B401370436D0133436561
:1024C800B0F85A30013B9BB2A0F85A30B0F85A30F5
:1024D8009BB20BBB10B504460268136823F49073D3
:1024E80013600268936823F0010393602023C36795
:1024F80000234366036E012B04D000F0EBFB00239E
:10250800236610BD0268136823F010031360B0F847
:102518005810FFF786FEF2E77047B0F85C30C26FDC
:10252800222A05D00268936943F008039361704733
:102538000268918C426D0B401380436D02334365F2
:10254800B0F85A30013B9BB2A0F85A30B0F85A3074
:102558009BB20BBB10B504460268136823F4907352
:1025680013600268936823F0010393602023C36714
:1025780000234366036E012B04D000F0ABFB00235D
:10258800236610BD0268136823F010031360B0F8C7
:102598005810FFF746FEF2E77047000010B50446F2
:1025A80083680269134342691343C269134301688C
:1025B8000868504A024013430B602268536823F4AA
:1025C8004053E1680B435360A269236A1A432168A8
:1025D8008B6823F4306313438B602368464A934225
:1025E80014D0464A934227D002F5806293421FD006
:1025F8001023E269B2F5004F20D0082B73D8DFE82A
:1026080003F04D634B726672727269003C4B1B6B30
:1026180003F00303032B09D8DFE803F00204060CD8
:102628000023E6E70423E4E70823E2E71023E0E7D2
:102638000023DEE70223DCE70023DAE7082B4CD887
:10264800DFE803F00822284B254B4B4B05004FF4DD
:10265800004003E0FEF77CFF002840D06268530882
:1026680003EB4003B3FBF2F39BB2A3F110014FF667
:10267800EF72914235D823F00F02C3F3420313439C
:102688002268D36000201BE0FEF778FFE4E7FEF73E
:102698004FFEE1E71B48E1E71A4802E0FEF758FF62
:1026A80018B3636800EB5300B0FBF3F080B2A0F1FD
:1026B80010024FF6EF739A4219D82368D8600020A9
:1026C80000236366A36610BDFEF758FFE8E7FEF730
:1026D8002FFEE5E74FF40040E3E70120F0E7002094
:1026E800EEE70120ECE70120EAE70020E8E7012017
:1026F800E6E700BFF369FFEF0038014000440040FF
:102708000010024000127A00436A13F0010F06D04D
:102718000268536823F40033816A0B435360436AA9
:1027280013F0020F06D00268536823F48033C16A9D
:102738000B435360436A13F0040F06D002685368D2
:1027480023F48023016B0B435360436A13F0080F93
:1027580006D00268536823F40043416B0B4353606F
:10276800436A13F0100F06D00268936823F480536D
:10277800816B0B439360436A13F0200F06D0026805
:10278800936823F40053C16B0B439360436A13F0BF
:10279800400F0AD00268536823F48013016C0B437E
:1027A8005360036CB3F5801F0BD0436A13F0800F9E
:1027B80006D00268536823F40023816C0B435360EE
:1027C80070470268536823F4C003416C0B4353609D
:1027D800EBE72DE9F04104460F4616469846069D5C
:1027E8002368DB6937EA03030CBF01230023B342E4
:1027F8003BD1B5F1FF3FF3D0FDF724FDA0EB080076
:10280800A84220D8FDB123681A6812F0040FE7D057
:10281800DA6912F4006FE3D04FF400621A6222689A
:10282800136823F4D07313602268936823F00103BC
:1028380093602023A367E367C4F88030002384F8FB
:102848007430032012E02268136823F4D0731360F5
:102858002268936823F0010393602023A367E3674A
:10286800002384F87430032000E00020BDE8F081E4
:1028780030B583B004460023C0F88030FDF7E2FC91
:10288800054623681B6813F0080F0DD123681B68E1
:1028980013F0040F16D12023A367E36700202066F6
:1028A80084F8740003B030BD6FF07E430093034694
:1028B80000224FF400112046FFF78BFF0028E5D0D7
:1028C8000320EFE76FF07E4300932B4600224FF47E
:1028D80080012046FFF77DFF0028DCD00320E1E7D8
:1028E80068B310B50446836F03B32423A367226833
:1028F800136823F0010313602046FFF74FFE0128F9
:1029080013D0636ABBB92268536823F490435360B9
:102918002268936823F02A0393602268136843F0BF
:10292800010313602046FFF7A3FF10BD80F8743041
:1029380000F04EFFD9E72046FFF7E6FEE3E7012067
:102948007047000003464165A0F85820A0F85A20B7
:10295800002242668268B2F5805F06D0A2B9026999
:1029680072B9FF22A0F85C2014E0026922B940F293
:10297800FF12A0F85C200DE0FF22A0F85C2009E01F
:102988007F22A0F85C2005E0B2F1805F1BD0002216
:10299800A0F85C200022C3F880202222DA67196898
:1029A8008A6842F001028A609A68B2F5805F14D0A2
:1029B8000D4A5A66002083F874001A68136843F4B5
:1029C80090731360704702691AB97F22A0F85C20DF
:1029D800E0E73F22A0F85C20DCE71A69002AE7D18B
:1029E800024A5A66E6E700BFA1240008232500082A
:1029F800C36F202B17D1C1B1CAB190F87430012B25
:102A080017D010B5012380F87430002303660368DB
:102A18005C6814F4000F03D01C6844F080641C60E8
:102A2800FFF790FF10BD022070470120704701207A
:102A3800704702207047704708B50D480D4B03607A
:102A48000623436000238360C3604FF400320261B1
:102A58004FF480124261037643768376C376037718
:102A68004377FDF709FC00B908BD00F0F9FAFBE768
:102A7800E40000200064004000B589B000230393FF
:102A880004930593069307930268184B9A4202D061
:102A980009B05DF804FB03F5D633DA6942F0007239
:102AA800DA61DA6902F000720192019A5A6942F415
:102AB80000325A615B6903F400330293029B4FF4BE
:102AC800C053039302230493032306930923079314
:102AD80003A94FF09040FEF73FF800220721142089
:102AE800FDF79AFF1420FDF7CBFFD1E70064004003
:102AF800002209E0074B002143F8321003EBC20320
:102B080059609962D9620132042AF3DD014B00222F
:102B18001A6570472C0000200138032801D90020CD
:102B2800704701207047000070B505460C461646F0
:102B3800FFF7F2FF68B104F2FF3240F2FE739A42E7
:102B48000AD8074840F8354000EBC5004660002029
:102B580070BD4FF0FF30FBE76FF00100F8E700BFF2
:102B68002C00002070B506460D461446FFF7D4FF2A
:102B780040B1064800EBC600836A2B60C36A236035
:102B8800002070BD4FF0FF30FBE700BF2C00002095
:102B980030B4104C236D01332365042B02DD23462A
:102BA80001241C650B4C256D056003230B6054F84C
:102BB8003500431103F0380363F03F0304EBC50409
:102BC8006168C1F30224234313705070917030BCC4
:102BD800704700BF2C00002070B588B00024039413
:102BE80004940594069407941E4B5A6942F4800293
:102BF8005A615A6902F480020092009A5A6942F4B2
:102C080000325A615A6902F400320192019A5A69F3
:102C180042F480225A615B6903F480230293029B89
:102C2800224602214FF09040FEF75AF80E4D2246F8
:102C3800CB212846FEF754F8022303930126049675
:102C48000594069403A94FF09040FDF785FFCB2328
:102C5800039304960594069403A92846FDF77CFF80
:102C680008B070BD001002400004004870B596B06E
:102C7800202200210DA800F05DFE0024079408948E
:102C880009940A940B94019402940394049405946F
:102C9800069402250C95012610961023119313957E
:102CA8004FF4E01315930CA8FEF720F80F230793B1
:102CB800089509940A940B94314607A8FEF770FB0F
:102CC80041F2010301930394069401A8FEF76CFCFA
:102CD80016B070BD0268084B1B689A4200D0704756
:102CE80010B5064C0821204600F0E0F908222146DC
:102CF8000148FFF77DFE10BDCC02002080000020B7
:102D080010B582B004468901C9B211438DF800108C
:102D18008DF80130049B8DF80230059B8DF8033047
:102D28006420FDF795FA6A460421204600F010FB5E
:102D380002B010BD10B592B0FDF766FAFFF796FF26
:102D4800FFF74AFFFFF778FE00F0C6FB00F0ECFB48
:102D580000F006FD00F020FD00F082FB00F0C2FC50
:102D6800354800F055FA082234493548FFF740FE47
:102D7800FFF7BEFE00F08EF91F220021314800F057
:102D8800B9FA322401940094234600221146012006
:102D9800FFF7B6FF0194009423460022012108465C
:102DA800FFF7AEFF0194009423460022114602204B
:102DB800FFF7A6FF01940094234600220121022078
:102DC800FFF79EFF2048FEF703FE2048FEF700FEAF
:102DD8001F48FEF7FDFD1BE0012202214FF0904045
:102DE800FDF77EFF1CE0002202214FF09040FDF726
:102DF80077FF1AE0E1000A1D08AB1A44194420467F
:102E0800FFF7B0FE0134042CF4DD6420FDF720FA4E
:102E180003A800F0EFF99DF80F30DBB2012BDBD0EF
:102E28009DF80E30DBB2012BDDD00A4B40F2DC52AC
:102E38005A630124E7E700BF480200208000002011
:102E4800CC020020E400002064010020FC010020E6
:102E5800B00100200004004030B593B00446026879
:102E6800764B9A4209D02268754B9A422ED0226836
:102E7800744B9A4239D013B030BD2822002108A8DB
:102E880000F058FD03A800F0B5F99DF81030DBB24A
:102E9800012B08D000229DF81130DBB2012B05D0A0
:102EA8000A9201250FE04FF4FA72F4E7664AF7E751
:102EB80012AB03EBC50353F8242C53F8281C2846FF
:102EC800FFF732FE0135042DF2DDCCE70123019333
:102ED8000323029308AA02A901A8FFF759FE08AA2A
:102EE8000299019800F034FAC1E708A800F082F9C5
:102EF8009DF82830DBB2012BBDD1544B1B68012B48
:102F08002CD0534A1268012A44D052490968012931
:102F18005CD051488068012873D0002BABD1002ABF
:102F2800A9D10029A7D10028A5D14C4C01221146CE
:102F38002046FDF7D5FE002280212046FDF7D0FE71
:102F4800002240212046FDF7CBFE00220221204628
:102F5800FDF7C6FE3D4B01221A608CE73F4C00226C
:102F680001212046FDF7BCFE012280212046FDF705
:102F7800B7FE002240212046FDF7B2FE00220221C2
:102F88002046FDF7ADFE314B00221A60304B01227E
:102F98001A6070E7314C002201212046FDF7A0FE9F
:102FA800002280212046FDF79BFE01224021204679
:102FB800FDF796FE002202212046FDF791FE244BE4
:102FC80000221A60234B01221A6054E7234C002286
:102FD8002046FDF785FE002280212046FDF780FE71
:102FE800002240212046FDF77BFE012202212046D7
:102FF800FDF776FE174B00221A60174B01229A60E4
:1030080039E7164C012211462046FDF769FE0022D9
:1030180080212046FDF764FE002240212046FDF76E
:103028005FFE002202212046FDF75AFE0A4B0022CD
:103038009A60064B01221A601DE700BF001000408D
:1030480000140040002C01400CFEFFFF140100207A
:103058000C0100201001002080000020000400481E
:10306800704700000A4B00221A705A709A70DA7082
:103078001A715A719A71DA711A725A729A72DA72EC
:103088001A735A7340225A741A74DA739A7370470F
:103098009C00002008B5FFF7E5FF034B01225A61A9
:1030A80000229A6108BD00BF9C00002070B506464A
:1030B8000D46002487E04E4B00229A6189E04C4A75
:1030C8002244127F134403F07F030134062CF6DDFB
:1030D800474A92F823209A4240F08180FFF7C2FFC6
:1030E800434B9B7FC3F340024AB113F0010F06D054
:1030F8003F4A0121117308E000230124E6E713F099
:10310800010F0CD03A4A01211170C3F3800262B159
:1031180013F0080F09D0364A012151730AE0002A3A
:10312800F3D0334A01215170EFE7002A43D0304AE7
:103138000121917013F0100F02D02D4A0121117155
:1031480013F0200F02D02A4A0121517113F0400FC9
:1031580002D0274B01229A71254B5B7F13F0010F98
:1031680002D0234A0121D17113F0020F02D0204A64
:103178000121117213F0040F02D01D4A012151726E
:1031880013F0080F02D01A4A0121917213F0100FA0
:1031980002D0174B0122DA72154B93F820201A74CB
:1031A800DA7F5A7493F822209A7393F82120DA73FD
:1031B80000225A6113E013F0080FBBD00C4A01211A
:1031C800D170B7E70134AC4211DA315D80293FF4A0
:1031D80072AF074B9A6913441977072A8CD0044BAE
:1031E8009B69072BEEDC0133014A9361EAE770BD66
:1031F8009C00002030B40546044C0FCC2860696060
:10320800AA60EB6023882B8230BC70479C000020AA
:10321800014B1860704700BFC800002082B00A4BFD
:103228009A6942F001029A619A6902F001020092D9
:10323800009ADA6942F08052DA61DB6903F0805360
:103248000193019B02B07047001002407047FEE7EF
:10325800FEE7FEE7FEE770477047704708B5FCF7E2
:10326800E5FF08BD08B50248FDF797FA08BD00BF9D
:10327800E400002008B50248FEF7E8FB08BD00BFDF
:10328800B001002008B50248FEF7E0FB08BD00BF0A
:10329800B001002008B50248FEF7D8FB08BD00BF02
:1032A800B001002008B50248FEF7D0FB08BD00BFFA
:1032B800B001002008B50248FEF7C8FB08BD00BFF2
:1032C8001801002008B50248FEF7ACFF08BD00BF92
:1032D800CC02002008B50248FEF7B8FB08BD00BFC5
:1032E8006401002008B50248FEF7B0FB08BD00BF26
:1032F800FC01002030B58BB0144C206000236360C3
:10330800A36004E0114C1C44002525730133072BEE
:10331800F8DD002305930693079349010091019175
:103328005201029203920493012308930E230993F6
:103338006946FDF747F8054C02212068FDF70FFAAA
:103348002068FDF7BDF80BB030BD00BFCC000020F1
:1033580070B588B006460C461546114B1968114BD6
:103368001868FDF750F9C0B9029600230393049337
:103378000593069405E0E95C08AA1A4402F8201CA3
:103388000133A342F7DB064B6A4602A905480068E9
:10339800FDF7C4F8002008B070BD4FF0FF30FAE721
:1033A80008000020CC000020704700000268114B84
:1033B800186803689A4200D0704700B58BB001AB1B
:1033C80003AA0021FDF731F90A4B039A5A60079ABC
:1033D8009A60002307E00AAA1A4412F8241C054A36
:1033E8001A4411730133072BF5DDFFF7DDFF0BB02E
:1033F8005DF804FBCC0000201549D1F8883043F46F
:103408007003C1F88830134B1A6842F001021A6041
:103418005868114A02405A601A6822F0847222F4ED
:1034280080321A601A6822F480221A605A6822F4DC
:10343800FE025A60DA6A22F00F02DA62186B074A53
:1034480002401A6300229A604FF000638B60704755
:1034580000ED00E0001002400CC07FF8CCFC00FF3B
:1034680000B589B00023049305930693079301934D
:10347800029303931648174A026040F2E73242600B
:1034880083604722C260036143618361FEF7F4FBF6
:10349800A0B908A94FF4805341F8103D0C48FEF735
:1034A80029FD70B9002301930293039301A90848E9
:1034B800FEF746FE40B909B05DF804FBFFF7D0FD02
:1034C800E7E7FFF7CDFDEDE7FFF7CAFDF3E700BF3C
:1034D800B0010020002C014000B585B00023019305
:1034E800029303930E480F4A0260232242608360CE
:1034F80042F20F72C2608361FEF7BEFB50B900232F
:103508000193039301A90648FEF71AFE28B905B0EE
:103518005DF804FBFFF7A4FDF1E7FFF7A1FDF6E76F
:10352800640100200010004000B585B0002301931D
:10353800029303930E480F4A02602322426083607D
:1035480040F2F312C2608361FEF796FB50B9002384
:103558000193039301A90648FEF7F2FD28B905B0C7
:103568005DF804FBFFF77CFDF1E7FFF779FDF6E76F
:10357800FC0100200014004000B585B003682E4A05
:10358800934208D02D4A934230D02D4A934240D0DE
:1035980005B05DF804FB2B4B9A6942F400629A610E
:1035A8009B6903F400630193019B002211461820D4
:1035B800FDF732FA1820FDF763FA002211461920A8
:1035C800FDF72AFA1920FDF75BFA002211461A20A6
:1035D800FDF722FA1A20FDF753FA002211461B20A4
:1035E800FDF71AFA1B20FDF74BFAD1E7154BDA69FC
:1035F80042F01002DA61DB6903F010030293029BC8
:10360800002211463620FDF707FA3620FDF738FA72
:10361800BEE70C4BDA6942F02002DA61DB6903F09D
:1036280020030393039B002211463720FDF7F4F98A
:103638003720FDF725FAABE7002C014000100040C9
:10364800001400400010024002680E4B9A4200D05D
:10365800704700B583B003F50333DA6942F002021C
:10366800DA61DB6903F002030193019B0022114632
:103678001D20FDF7D1F91D20FDF702FA03B05DF812
:1036880004FB00BF0004004000B587B0002301938D
:1036980002930393049305930268104B9A4202D055
:1036A80007B05DF804FB03F503335A6942F40032AE
:1036B8005A615B6903F400330093009B4023019334
:1036C80002230293059301A94FF09040FDF744FAB5
:1036D80000210348FEF78EFCE2E700BF000400402B
:1036E8001801002000B58BB00023079308930993B5
:1036F800009301930293039304930593069316484A
:10370800164A026043608360C36003618361FEF709
:10371800E2FAC0B900230793099307A90E48FEF7F8
:103728000FFD98B96023009300220192029204923F
:1037380069460948FEF73EFB58B90748FFF7A4FF5A
:103748000BB05DF804FBFFF78BFCE3E7FFF788FCA1
:10375800E8E7FFF785FCF0E71801002000040040C7
:1037680008B50B480B4B03604FF416534360002316
:103778008360C36003610C2242618361C361036299
:103788004362FFF7ADF800B908BDFFF769FCFBE736
:10379800480200200038014008B50B480B4B036075
:1037A8004FF41653436000238360C36003610C2207
:1037B80042618361C36103624362FFF791F800B914
:1037C80008BDFFF74DFCFBE7CC0200200044004099
:1037D80000B58BB0002305930693079308930993CC
:1037E80003682A4A934205D0294A934224D00BB051
:1037F8005DF804FB274B9A6942F480429A619A6902
:1038080002F480420192019A5A6942F400325A61E4
:103818005B6903F400330293029B4FF4C063059382
:1038280002230693032308930723099305A94FF05E
:103838009040FDF791F9DAE7164BDA6942F4003265
:10384800DA61DA6902F400320392039A5A6942F49F
:1038580000325A615B6903F400330493049B0C2320
:10386800059302230693032308930723099305A9C5
:103878004FF09040FDF770F9002204212620FDF753
:10388800CBF82620FDF7FCF8B1E700BF003801406F
:103898000044004000100240DFF834D0002103E06B
:1038A8000C4B5B58435004310B480C4B42189A425E
:1038B800F6D30B4A02E0002342F8043B094B9A4234
:1038C800F9D3FFF799FD00F011F8FFF733FAFEE797
:1038D80000300020A439000800000020100000205B
:1038E8001000002050030020FEE7000070B50D4EC8
:1038F8000D4CA41BA4100025A54209D10B4E0C4C5D
:1039080000F020F8A41BA4100025A54205D170BD25
:1039180056F8253098470135EEE756F82530984790
:103928000135F2E79C3900089C3900089C390008E9
:10393800A039000802440346934200D1704703F8B7
:10394800011BF9E7F8B500BFF8BC08BC9E467047F4
:0C395800F8B500BFF8BC08BC9E467047E4
:1039640002030405060708090A0B0C0D0E0F1010BC
:103974000102030405060708090A0B0C0D0E0F10BB
:10398400000000000000000001020304060708090B
:08399400000000000102030421
:04399C00AD01000871
:0439A0008901000891
:1039A40001000000100000000100000000127A0075
:04000005080038A116
:00000001FF
